:0400000080311A2809
:10000800803120007F08FC000B1D16280B1182315F
:100018000522803177082000E2007608E1006B3085
:100028008231C4227C082000FF00090080311C288E
:1000380061308400003085000E3083312E238031FA
:100048009C30840082308500203086000030870094
:10005800283083313423200083313A2B22008E1537
:1000680027302000D800D80B372800320030200075
:10007800CE00CF000030D000D1008030D200003058
:10008800D300823170228031EF302000D800003256
:10009800D80B4B280032003200302000CE00CF00B1
:1000A8000030D000D10082313C2280312000CE1FA8
:1000B8006628EF302000D8000032D80B60280032C4
:1000C800003250280030CE00CF001630D00000306B
:1000D800D1000030D200D30082317022803100304C
:1000E8002000CE00CF000030D000D1000030D20078
:1000F800D30082317022803100302000CE00CF0042
:100108000530D0000030D1003C30D8005808D2006B
:100118000430D3000030D4008131BC21803100305C
:100128002000CE00CF000130D0000030D100633075
:10013800D8005808D2000430D3000030D4008131F0
:10014800BC21803100302000CE00CF000F30D0001D
:100158000030D1002C30D8005808D2000430D30029
:100168000030D4008131BC21803100302000CE0025
:10017800CF000930D0000030D1002030D800580816
:10018800D2000630D3000030D4008131BC21803148
:1001980000302000CE00CF003530D0000030D10034
:1001A8000030D200D300823170228031003020002C
:1001B800CE00CF003630D0000030D1000030D20061
:1001C800D3008231702280312000D901DA015A0827
:1001D800803AD800803058020830031959020318B1
:1001E800282920005908403EDB0000305A3DDC0039
:1001F8005C08CF005B08CE000130D0000030D10091
:100208001030D2000030D3008231702280312000BB
:100218005C08CF005B08CE000030D000D100003071
:10022800D200D30082317022803101302000D907FA
:100238000030DA3D5A08803AD80080305802083039
:1002480003195902031CF5282000D901DA015A08BC
:10025800803AD80080305802083003195902031830
:10026800B32920005908403EDB0000305A3DDC002D
:100278005C08CF005B08CE000030D000D10002300F
:10028800D2000030D30082317022803120005C0817
:10029800CF005B08CE000430D0000030D10013300E
:1002A800D2000030D30082317022803120005C08F7
:1002B800CF005B08CE000530D0000030D1005908CF
:1002C800813ED20000305A3DD30082317022803105
:1002D80020005C08CF005B08CE000C30D000003056
:1002E800D1003430D8005808D2000430D300003090
:1002F800D4008131BC21803120005C08CF005B082C
:10030800CE001030D0000030D1004430D80058085A
:10031800D2000230D3000030D4008131BC218031BA
:1003280020005C08CF005B08CE000130D000003010
:10033800D1000130D2000030D300823170228031E8
:1003480001302000D9070030DA3D5A08803AD80039
:1003580080305802083003195902031C3529EF3040
:100368002000D8000032D80BB6290032003208002D
:1003780022008E1120004F08C9004E08C8008231A3
:10038800E422813120005108C9005008C800823198
:10039800E422813180302000C8000030C900823159
:1003A800E422813120005408C9005308C800823172
:1003B800E42281312000D601D70154085702031DD9
:1003C800E729530856020318FC2956355207D50069
:1003D800550886008701403FC800413FC900823167
:1003E800E422813101302000D6070030D73DE129D1
:1003F80022008E1527302000D500D50B012A0032A7
:100408000800FA01FB0122000E120030F000F10092
:100418008231F82282317008F8007108F900F80E6C
:10042800F90EF030F90578080F39F904F030F805BD
:100438007808FA007908FB000030F000F1008231FA
:10044800F82282317008F8007108F9000430F93692
:10045800F80C890B2B2A7A087804FA007B087904AF
:10046800FB0022000E167B08F7007A08F600080049
:1004780022008E1120004F08C9004E08C8008231A2
:10048800E422823120005108C9005008C800823196
:10049800E422823100302000C800C9008231E42201
:1004A800823101302000C8000030C9008231E422C6
:1004B800823100302000C800C9008231E4222000C7
:1004C8004908D3004808D20022008E15200053089E
:1004D800CF005208CE00080022008E1120004F08DD
:1004E800C9004E08C8008231E42282312000510838
:1004F800C9005008C8008231E422823180302000CF
:10050800C8000030C9008231E42282310130200065
:10051800C8000030C9008231E4228231200053082B
:10052800C9005208C8008231E42222008E15080052
:10053800543400345234003400340034003400346D
:10054800F834003401340034A934003480340034E1
:100558008034003482340034A934003480340034C8
:100568008034003481340034FF34003400340034E3
:100578000034003400340034133400348834003438
:10058800F60022008E120030F000F1008231F822CD
:1005980082317608860087017008C03F7108C13F24
:1005A8000030F000F1008231F8227608023E860021
:1005B80087017008C03F7108C13F22008E160800ED
:1005C80020009111480824009100141CE92A110800
:1005D8002000CA00CB014A08CC004B08CD004D08CA
:1005E800C9004C08C80008002000911170082400B8
:1005F8009100141CFD2A1108F200F3017208F4009E
:100608007308F5007508F1007408F00008008331DC
:100618001C23833183312623833183313E23833165
:10062800803132200130210095008B168B1708008D
:1006380021000E108E140E110E128E128E110C1235
:100648008C160800F0302400950515121417941321
:1006580095160800640080010131890B2F2B0034A6
:10066800FE0012001E00FE0B352B003483310B23D5
:0C06780083313D2B22000E168E16080068
:020000040001F9
:04000E00A2C9CFDFD5
:00000001FF
