:08000000803102288731EA2F4C
:100AA00022008E160800FE0012001E00FE0B542DC0
:100AB0000034F03024009505151214179413951680
:100AC000080021000E108E140E110E128E128E11BF
:100AD0000C128C1608008531612585318531592528
:100AE0008531853150258531863166260800200004
:100AF0009111700824009100141C7C2D1108F20043
:100B0000F3017208F4007308F5007508F100740829
:100B1000F000080085316B25853121001A0820007E
:100B2000D300D4015308F0005408F1008531772533
:100B3000853127302000D300D30B9C2D0032273085
:100B40002000D300D30BA22D00328D2D22008E1158
:100B50007708F1007608F00085317725853179082E
:100B6000F1007808F0008531772585318030F0007C
:100B70000030F1008531772585310130F0000030FB
:100B8000F1008531772585317B08F1007A08F00086
:100B90008531772522008E150800543400345234F4
:100BA00000340034003400340034F83400340134AC
:100BB0000034A9340034803400348034003482346A
:100BC0000034A9340034803400348034003481345B
:100BD0000034FF3400340034003400340034003476
:100BE0000034133400348834003422008E11770826
:100BF000F1007608F0008531772585317908F1001C
:100C00007808F0008531772585310030F000F1005B
:100C10008531772585310130F0000030F1008531D4
:100C2000772585310030F000F10085317725710896
:100C3000FB007008FA0022008E157B08F7007A0886
:100C4000F600080022008E117708F1007608F00007
:100C50008531772586317908F1007808F0008531F3
:100C6000772586318030F0000030F100853177251E
:100C700086317C08F1007B08F000853177258631CC
:100C80002000C801C9017C084902031D492E7B08C8
:100C9000480203185E2E48357A07FD007D0886005D
:100CA0008701403FF000413FF100853177258631D3
:100CB00001302000C8070030C93D432E22008E15A8
:100CC0002730FD00FD0B622E0032080022008E1539
:100CD00027302000CA00CA0B6B2E00320030F6000D
:100CE000F7000030F800F9008030FA000030FB0017
:100CF0008531A6258631EF302000CA000032CA0BAC
:100D00007E2E003200320030F600F7000030F8008E
:100D1000F9008531F5258631F61F972EEF3020003A
:100D2000CA000032CA0B912E00320032832E0030EE
:100D3000F600F7001630F8000030F9000030FA0035
:100D4000FB008531A62586310030F600F700003023
:100D5000F800F9000030FA00FB008531A625863145
:100D60000030F600F7000530F8000030F9003C30A4
:100D70002000CA004A08FA000430FB000030FC00E2
:100D80008631222686310030F600F7000130F80067
:100D90000030F90055302000CA004A08FA0004303B
:100DA000FB000030FC008631222686310030F60040
:100DB000F7000F30F8000030F9002C302000CA0096
:100DC0004A08FA000430FB000030FC00863122267D
:100DD00086310030F600F7000930F8000030F900E5
:100DE00020302000CA004A08FA000630FB0000301C
:100DF000FC008631222686310030F600F7003530BF
:100E0000F8000030F9000030FA00FB008531A6251B
:100E100086310030F600F7003630F8000030F90077
:100E20000030FA00FB008531A62586312000CB0179
:100E3000CC014C08803ACA0080304A0208300319BD
:100E40004B020318562F20004B08403ECD000030C7
:100E50004C3DCE004E08F7004D08F6000130F8007A
:100E60000030F9001030FA000030FB008531A62573
:100E7000863120004E08F7004D08F6000030F800DB
:100E8000F9000030FA00FB008531A62586310130DB
:100E90002000CB070030CC3D4C08803ACA0080309F
:100EA0004A02083003194B02031C232F2000CB01F8
:100EB000CC014C08803ACA0080304A02083003193D
:100EC0004B020318E12F20004B08403ECD000030BC
:100ED0004C3DCE004E08F7004D08F6000030F800FB
:100EE000F9000230FA000030FB008531A62586317A
:100EF00020004E08F7004D08F6000430F8000030DE
:100F0000F9001330FA000030FB008531A625863148
:100F100020004E08F7004D08F6000530F8000030BC
:100F2000F9004B08813EFA0000304C3DFB00853152
:100F3000A625863120004E08F7004D08F6000C303B
:100F4000F8000030F9003430CA004A08FA000430D2
:100F5000FB000030FC0086312226863120004E083E
:100F6000F7004D08F6001030F8000030F90044306A
:100F7000CA004A08FA000230FB000030FC0086314B
:100F80002226863120004E08F7004D08F600013079
:100F9000F8000030F9000130FA000030FB00853124
:100FA000A625863101302000CB070030CC3D4C080F
:100FB000803ACA0080304A02083003194B02031CF1
:100FC000632FEF302000CA000032CA0BE42F00323A
:100FD00000320800D501D601D701D801D901DA01C4
:100FE000DB01DC01CD3084008530850020308600B7
:100FF00000308700283085315325200085318A2D27
:020000040001F9
:04000E00A2C9CFDFD5
:00000001FF
