:08000000803102288731FC2F3A
:10097A0020009111700824009100141CC22C110847
:10098A00F200F3017208F4007308F5007508F1012A
:10099A00F1077408F001F00708008531AB258431AE
:1009AA0022008E115530F0000030F1008431BD2450
:1009BA00843122008E1527302000DC00DC0BE32C6A
:1009CA000032D52C240015087006F03970069500FF
:1009DA007208031D1516031915127408031D14173E
:1009EA00031914137608031D94170319941378082E
:1009FA00031D951603199512080022008E11770817
:100A0A00F101F1077608F001F0078431BD24853140
:100A1A007908F101F1077808F001F0078431BD2463
:100A2A0085318030F0000030F1008431BD248531F9
:100A3A000130F0000030F1008431BD2485317B089B
:100A4A00F101F1077A08F001F0078431BD24220090
:100A5A008E15080022008E117708F101F107760839
:100A6A00F001F0078431BD2485317908F101F107DD
:100A7A007808F001F0078431BD2485310030F00098
:100A8A000030F1008431BD2485310130F00000309E
:100A9A00F1008431BD2485310030F0000030F100CE
:100AAA008431BD247108FB01FB077008FA01FA07BB
:100ABA0022008E157B08F701F7077A08F601F60778
:100ACA00080022008E117708F101F1077608F0017B
:100ADA00F0078431BD2485317908F101F1077808DE
:100AEA00F001F0078431BD2485318030F0000030F8
:100AFA00F1008431BD2485317C08F101F1077B08BE
:100B0A00F001F0078431BD2485312000A001A10144
:100B1A007C082102031D932D7B0820020318A82DAF
:100B2A0020357A07FD007D0886008701403FF000E6
:100B3A00413FF1008431BD24853101302000A007F6
:100B4A000030A13D8D2D22008E1508003C30210079
:100B5A009904FC309905991719170E108E140E1165
:100B6A000E128E128E110C128C16A601A701A40168
:100B7A00A5010130A8000030A900AA01AB0101308B
:100B8A00A2000030A300A230860000308700703037
:100B9A008400003085000A302000D70016001A00B1
:100BAA00D70BD32D8431E72485312100A001A1017F
:100BBA002108803A2000D70080305702031DE82D13
:100BCA000430210020020318032E21002035AC3EF8
:100BDA00860087010030C03FC13F0130A0070030C6
:100BEA00A13D2108803A2000D70080305702031D1A
:100BFA00012E043021002002031CEA2DA930210015
:100C0A00C8000030C9008030CA000030CB008030F4
:100C1A00CC000030CD008230CE000030CF005430FE
:100C2A00B4000030B5005230B6000030B700B80149
:100C3A00B901BA01BB01F830BC000030BD00013077
:100C4A00BE000030BF00FF30C0000030C100C2014A
:100C5A00C301C401C501C601C701A930D0000030D3
:100C6A00D1008030D2000030D3008030D400003070
:100C7A00D5008130D6000030D7001330D8000030BC
:100C8A00D9008830DA000030DB00AC308600003052
:100C9A008700223084000030850030302000D700E1
:100CAA0016001A00D70B552E86315C260800003034
:100CBA00F6000030F7000030F8000030F90080300C
:100CCA00FA000030FB00853102258631EF30200022
:100CDA00D2000032D20B6E2E003200320030F60003
:100CEA000030F7000030F8000030F90085312F2578
:100CFA008631F61F892EEF302000D2000032D20B47
:100D0A00832E00320032732E0030F6000030F700D6
:100D1A001630F8000030F9000030FA000030FB000D
:100D2A008531022586310030F6000030F7000030A8
:100D3A00F8000030F9000030FA000030FB0085317D
:100D4A00022586310030F6000030F7000530F80041
:100D5A000030F90036302000D2005208FA00043080
:100D6A00FB000030FC008531662586310030F60034
:100D7A000030F7000130F8000030F900223020007E
:100D8A00D2005208FA000430FB000030FC00853122
:100D9A00662586310030F6000030F7000F30F80083
:100DAA000030F9003E302000D2005208FA00043028
:100DBA00FB000030FC008531662586310030F600E4
:100DCA000030F7000930F8000030F9002A3020001E
:100DDA00D2005208FA000630FB000030FC008531D0
:100DEA00662586310030F6000030F7003530F8000D
:100DFA000030F9000030FA000030FB00853102258E
:100E0A0086310030F6000030F7003630F800003046
:100E1A00F9000030FA000030FB00853102258631E6
:100E2A002000D301D4015408803AD2008030520203
:100E3A0008300319530203185B2F20005308403E61
:100E4A00D5000030543DD6005608F701F70755087B
:100E5A00F601F6070130F8000030F9001030FA0008
:100E6A000030FB0085310225863120005608F70143
:100E7A00F7075508F601F6070030F8000030F900C8
:100E8A000030FA000030FB0085310225863101303E
:100E9A002000D3070030D43D5408803AD200803075
:100EAA005202083003195302031C222F2000D301D7
:100EBA00D4015408803AD200803052020830031913
:100ECA0053020318F32F20005308403ED500003088
:100EDA00543DD6005608F701F7075508F601F607FC
:100EEA000030F8000030F9000230FA000030FB0050
:100EFA0085310225863120005608F701F707550883
:100F0A00F601F6070430F8000030F9001330FA0051
:100F1A000030FB0085310225863120005608F70192
:100F2A00F7075508F601F6070530F8000030F90012
:100F3A005308813EFA000030543DFB0085310225FA
:100F4A00863120005608F701F7075508F601F6071B
:100F5A000C30F8000030F9004630D2005208FA008E
:100F6A000430FB000030FC00853166258631200004
:100F7A005608F701F7075508F601F6071030F8008A
:100F8A000030F9004E30D2005208FA000230FB005D
:100F9A000030FC0085316625863120005608F701AD
:100FAA00F7075508F601F6070130F8000030F90096
:100FBA000130FA000030FB0085310225863101300C
:100FCA002000D3070030D43D5408803AD200803044
:100FDA005202083003195302031C682FEF30200015
:100FEA00D2000032D20BF62F0032003208007E10F7
:060FFA0020008431D22C1E
:020000040001F9
:04000E00A4C1CFDFDB
:00000001FF
