:08000000803102288731E92F4D
:100A1200FE0012001E00FE0B0A2D0034F0302400EE
:100A22009505151214179413951608003C302100F1
:100A32009904FC309905991719177F30980408001A
:100A420021000E108E140E110E128E128E110C1227
:100A52008C16080085311725853185312125853190
:100A620085310F25853186314126080020009111FC
:100A7200700824009100141C3C2D1108F200F301AF
:100A82007208F4007308F5007508F101F1077408A3
:100A9200F001F007080085312B25853121001A0865
:100AA2002000D300D4015308F0005408F10085312E
:100AB2003725853127302000D300D30B5E2D00323D
:100AC20085312B25853127302000D300D30B672DAC
:100AD20000324F2D54340034523400340034003488
:100AE20000340034F834003401340034A9340034C2
:100AF200803400348034003482340034A934003429
:100B0200803400348034003481340034FF340034C3
:100B12000034003400340034003400341334003420
:100B22008834003422008E117708F101F10776082B
:100B3200F001F0078531372585317908F101F10798
:100B42007808F001F0078531372585318030F000D3
:100B52000030F1008531372585310130F000003059
:100B6200F1008531372585317B08F101F1077A08DB
:100B7200F001F0078531372522008E15080022008A
:100B82008E117708F101F1077608F001F00785313F
:100B9200372585317908F101F1077808F001F0076E
:100BA2008531372585310030F0000030F100853184
:100BB200372585310130F0000030F10085313725CD
:100BC20085310030F0000030F100853137257108A1
:100BD200FB01FB077008FA01FA0722008E157B0859
:100BE200F701F7077A08F601F607080022008E11CE
:100BF2007708F101F1077608F001F0078531372512
:100C020085317908F101F1077808F001F0078531A3
:100C1200372585318030F0000030F10085313725ED
:100C220085317C08F101F1077B08F001F00785317D
:100C3200372585312000C801C9017C084902031DFE
:100C4200242E7B0848020318392E48357A07FD0006
:100C52007D0886008701403FF000413FF100853169
:100C62003725853101302000C8070030C93D1E2ECE
:100C720022008E152730FD00FD0B3D2E00320800AC
:100C820022008E1527302000CA00CA0B462E0032E1
:100C92000030F6000030F7000030F8000030F900B4
:100CA2008030FA000030FB00853193258631EF3029
:100CB2002000CA000032CA0B5B2E00320032003024
:100CC200F6000030F7000030F8000030F9008531FE
:100CD200C0258631F61F762EEF302000CA00003282
:100CE200CA0B702E00320032602E0030F600003047
:100CF200F7001630F8000030F9000030FA0000303A
:100D0200FB008531932586310030F6000030F70074
:100D12000030F8000030F9000030FA000030FB002B
:100D22008531932586310030F6000030F70005301A
:100D3200F8000030F9003C302000CA004A08FA00EE
:100D42000430FB000030FC008531F725863100308D
:100D5200F6000030F7000130F8000030F90055309D
:100D62002000CA004A08FA000430FB000030FC00F0
:100D72008531F72586310030F6000030F7000F305C
:100D8200F8000030F9002C302000CA004A08FA00AE
:100D92000430FB000030FC008531F725863100303D
:100DA200F6000030F7000930F8000030F90020307A
:100DB2002000CA004A08FA000630FB000030FC009E
:100DC2008531F72586310030F6000030F7003530E6
:100DD200F8000030F9000030FA000030FB008531E5
:100DE200932586310030F6000030F7003630F800E7
:100DF2000030F9000030FA000030FB008531932505
:100E020086312000CB01CC014C08803ACA008030E8
:100E12004A02083003194B020318482F20004B08DE
:100E2200403ECD0000304C3DCE004E08F701F707A2
:100E32004D08F601F6070130F8000030F9001030D5
:100E4200FA000030FB0085319325863120004E08E0
:100E5200F701F7074D08F601F6070030F8000030F9
:100E6200F9000030FA000030FB008531932586310D
:100E720001302000CB070030CC3D4C08803ACA003C
:100E820080304A02083003194B02031C0F2F200046
:100E9200CB01CC014C08803ACA0080304A020830AB
:100EA20003194B020318E02F20004B08403ECD00EF
:100EB20000304C3DCE004E08F701F7074D08F60111
:100EC200F6070030F8000030F9000230FA00003076
:100ED200FB0085319325863120004E08F701F70784
:100EE2004D08F601F6070430F8000030F90013301F
:100EF200FA000030FB0085319325863120004E0830
:100F0200F701F7074D08F601F6070530F800003043
:100F1200F9004B08813EFA0000304C3DFB00853160
:100F22009325863120004E08F701F7074D08F60198
:100F3200F6070C30F8000030F9003430CA004A08D5
:100F4200FA000430FB000030FC008531F7258631C1
:100F520020004E08F701F7074D08F601F60710309A
:100F6200F8000030F9004430CA004A08FA000230A2
:100F7200FB000030FC008531F725863120004E0849
:100F8200F701F7074D08F601F6070130F8000030C7
:100F9200F9000130FA000030FB00853193258631DB
:100FA20001302000CB070030CC3D4C08803ACA000B
:100FB20080304A02083003194B02031C552FEF30D0
:100FC2002000CA000032CA0BE32F003200320800B0
:100FD200D501D601D701D801D901DA01DB01DC0143
:100FE2006B30840085308500203086000030870019
:0E0FF2002830853109257E10200085314C2DD8
:020000040001F9
:04000E00A4C1CFDFDB
:00000001FF
